{
  "_format": "hh-sol-artifact-1",
  "contractName": "Lottery",
  "sourceName": "contracts/Lottery.sol",
  "abi": [
    {
      "inputs": [],
      "stateMutability": "nonpayable",
      "type": "constructor"
    },
    {
      "anonymous": false,
      "inputs": [
        {
          "indexed": false,
          "internalType": "bytes32",
          "name": "requestId",
          "type": "bytes32"
        },
        {
          "indexed": false,
          "internalType": "uint256",
          "name": "randomness",
          "type": "uint256"
        }
      ],
      "name": "RandomnessFulfilled",
      "type": "event"
    },
    {
      "inputs": [],
      "name": "enter",
      "outputs": [],
      "stateMutability": "payable",
      "type": "function"
    },
    {
      "inputs": [],
      "name": "getBalance",
      "outputs": [
        {
          "internalType": "uint256",
          "name": "",
          "type": "uint256"
        }
      ],
      "stateMutability": "view",
      "type": "function"
    },
    {
      "inputs": [],
      "name": "getPlayers",
      "outputs": [
        {
          "internalType": "address payable[]",
          "name": "",
          "type": "address[]"
        }
      ],
      "stateMutability": "view",
      "type": "function"
    },
    {
      "inputs": [],
      "name": "getRandomNumber",
      "outputs": [
        {
          "internalType": "bytes32",
          "name": "requestId",
          "type": "bytes32"
        }
      ],
      "stateMutability": "nonpayable",
      "type": "function"
    },
    {
      "inputs": [
        {
          "internalType": "uint256",
          "name": "lottery",
          "type": "uint256"
        }
      ],
      "name": "getWinnerByLottery",
      "outputs": [
        {
          "internalType": "address payable",
          "name": "",
          "type": "address"
        }
      ],
      "stateMutability": "view",
      "type": "function"
    },
    {
      "inputs": [
        {
          "internalType": "uint256",
          "name": "",
          "type": "uint256"
        }
      ],
      "name": "lotteryHistory",
      "outputs": [
        {
          "internalType": "address payable",
          "name": "",
          "type": "address"
        }
      ],
      "stateMutability": "view",
      "type": "function"
    },
    {
      "inputs": [],
      "name": "lotteryId",
      "outputs": [
        {
          "internalType": "uint256",
          "name": "",
          "type": "uint256"
        }
      ],
      "stateMutability": "view",
      "type": "function"
    },
    {
      "inputs": [],
      "name": "owner",
      "outputs": [
        {
          "internalType": "address",
          "name": "",
          "type": "address"
        }
      ],
      "stateMutability": "view",
      "type": "function"
    },
    {
      "inputs": [],
      "name": "payWinner",
      "outputs": [],
      "stateMutability": "nonpayable",
      "type": "function"
    },
    {
      "inputs": [],
      "name": "pickWinner",
      "outputs": [],
      "stateMutability": "nonpayable",
      "type": "function"
    },
    {
      "inputs": [
        {
          "internalType": "uint256",
          "name": "",
          "type": "uint256"
        }
      ],
      "name": "players",
      "outputs": [
        {
          "internalType": "address payable",
          "name": "",
          "type": "address"
        }
      ],
      "stateMutability": "view",
      "type": "function"
    },
    {
      "inputs": [],
      "name": "randomResult",
      "outputs": [
        {
          "internalType": "uint256",
          "name": "",
          "type": "uint256"
        }
      ],
      "stateMutability": "view",
      "type": "function"
    },
    {
      "inputs": [
        {
          "internalType": "bytes32",
          "name": "requestId",
          "type": "bytes32"
        },
        {
          "internalType": "uint256",
          "name": "randomness",
          "type": "uint256"
        }
      ],
      "name": "rawFulfillRandomness",
      "outputs": [],
      "stateMutability": "nonpayable",
      "type": "function"
    }
  ],
  "bytecode": "0x60c060405234801561001057600080fd5b5073b3dccb4cf7a26f6cf6b120cf5a73875b7bbc655b7301be23585060835e02b77ef475b0cc51aa1e07098173ffffffffffffffffffffffffffffffffffffffff1660a08173ffffffffffffffffffffffffffffffffffffffff16815250508073ffffffffffffffffffffffffffffffffffffffff1660808173ffffffffffffffffffffffffffffffffffffffff168152505050507f2ed0feb3e7fd2022120aa84fab1945545a9f2ffc9076fd6156fa96eaff4c131160001b60058190555067016345785d8a000060068190555033600160006101000a81548173ffffffffffffffffffffffffffffffffffffffff021916908373ffffffffffffffffffffffffffffffffffffffff160217905550600160038190555060805160a0516112a261015a6000396000818161047a01526108f90152600081816106c401526108bd01526112a26000f3fe6080604052600436106100c25760003560e01c80638da5cb5b1161007f578063dbdff2c111610059578063dbdff2c114610244578063e580f47b1461026f578063e97dcb621461029a578063f71d96cb146102a4576100c2565b80638da5cb5b146101d957806394985ddd14610204578063be71248a1461022d576100c2565b806312065fe0146100c7578063281d098d146100f257806342619f661461012f5780635d495aea1461015a5780636d6fe230146101715780638b5b9ccc146101ae575b600080fd5b3480156100d357600080fd5b506100dc6102e1565b6040516100e99190610b38565b60405180910390f35b3480156100fe57600080fd5b5061011960048036038101906101149190610b84565b6102e9565b6040516101269190610bf2565b60405180910390f35b34801561013b57600080fd5b50610144610326565b6040516101519190610b38565b60405180910390f35b34801561016657600080fd5b5061016f61032c565b005b34801561017d57600080fd5b5061019860048036038101906101939190610b84565b610391565b6040516101a59190610bf2565b60405180910390f35b3480156101ba57600080fd5b506101c36103c4565b6040516101d09190610ccb565b60405180910390f35b3480156101e557600080fd5b506101ee610452565b6040516101fb9190610d0e565b60405180910390f35b34801561021057600080fd5b5061022b60048036038101906102269190610d5f565b610478565b005b34801561023957600080fd5b50610242610514565b005b34801561025057600080fd5b506102596106bd565b6040516102669190610dae565b60405180910390f35b34801561027b57600080fd5b506102846107b0565b6040516102919190610b38565b60405180910390f35b6102a26107b6565b005b3480156102b057600080fd5b506102cb60048036038101906102c69190610b84565b61082e565b6040516102d89190610bf2565b60405180910390f35b600047905090565b60006004600083815260200190815260200160002060009054906101000a900473ffffffffffffffffffffffffffffffffffffffff169050919050565b60075481565b600160009054906101000a900473ffffffffffffffffffffffffffffffffffffffff1673ffffffffffffffffffffffffffffffffffffffff163373ffffffffffffffffffffffffffffffffffffffff161461038657600080fd5b61038e6106bd565b50565b60046020528060005260406000206000915054906101000a900473ffffffffffffffffffffffffffffffffffffffff1681565b6060600280548060200260200160405190810160405280929190818152602001828054801561044857602002820191906000526020600020905b8160009054906101000a900473ffffffffffffffffffffffffffffffffffffffff1673ffffffffffffffffffffffffffffffffffffffff16815260200190600101908083116103fe575b5050505050905090565b600160009054906101000a900473ffffffffffffffffffffffffffffffffffffffff1681565b7f000000000000000000000000000000000000000000000000000000000000000073ffffffffffffffffffffffffffffffffffffffff163373ffffffffffffffffffffffffffffffffffffffff1614610506576040517f08c379a00000000000000000000000000000000000000000000000000000000081526004016104fd90610e26565b60405180910390fd5b610510828261086d565b5050565b60006002805490506007546105299190610e75565b90506002818154811061053f5761053e610ea6565b5b9060005260206000200160009054906101000a900473ffffffffffffffffffffffffffffffffffffffff1673ffffffffffffffffffffffffffffffffffffffff166108fc479081150290604051600060405180830381858888f193505050501580156105af573d6000803e3d6000fd5b50600281815481106105c4576105c3610ea6565b5b9060005260206000200160009054906101000a900473ffffffffffffffffffffffffffffffffffffffff1660046000600354815260200190815260200160002060006101000a81548173ffffffffffffffffffffffffffffffffffffffff021916908373ffffffffffffffffffffffffffffffffffffffff1602179055506003600081548092919061065590610f04565b9190505550600067ffffffffffffffff81111561067557610674610f4c565b5b6040519080825280602002602001820160405280156106a35781602001602082028036833780820191505090505b50600290805190602001906106b9929190610a78565b5050565b60006006547f000000000000000000000000000000000000000000000000000000000000000073ffffffffffffffffffffffffffffffffffffffff166370a08231306040518263ffffffff1660e01b815260040161071b9190610d0e565b602060405180830381865afa158015610738573d6000803e3d6000fd5b505050506040513d601f19601f8201168201806040525081019061075c9190610f90565b101561079d576040517f08c379a000000000000000000000000000000000000000000000000000000000815260040161079490611009565b60405180910390fd5b6107ab6005546006546108b9565b905090565b60035481565b662386f26fc1000034116107c957600080fd5b6002339080600181540180825580915050600190039060005260206000200160009091909190916101000a81548173ffffffffffffffffffffffffffffffffffffffff021916908373ffffffffffffffffffffffffffffffffffffffff160217905550565b6002818154811061083e57600080fd5b906000526020600020016000915054906101000a900473ffffffffffffffffffffffffffffffffffffffff1681565b806007819055507f9b0aa3f92f46e24caa76b000bdf0dd495b9b390c320cf6585ae10a12b7d09edb82826040516108a5929190611029565b60405180910390a16108b5610514565b5050565b60007f000000000000000000000000000000000000000000000000000000000000000073ffffffffffffffffffffffffffffffffffffffff16634000aea07f00000000000000000000000000000000000000000000000000000000000000008486600060405160200161092d929190611029565b6040516020818303038152906040526040518463ffffffff1660e01b815260040161095a939291906110e2565b6020604051808303816000875af1158015610979573d6000803e3d6000fd5b505050506040513d601f19601f8201168201806040525081019061099d9190611158565b5060006109bf8460003060008089815260200190815260200160002054610a09565b90506001600080868152602001908152602001600020546109e09190611185565b60008086815260200190815260200160002081905550610a008482610a45565b91505092915050565b600084848484604051602001610a2294939291906111b9565b6040516020818303038152906040528051906020012060001c9050949350505050565b60008282604051602001610a5a929190611240565b60405160208183030381529060405280519060200120905092915050565b828054828255906000526020600020908101928215610af1579160200282015b82811115610af05782518260006101000a81548173ffffffffffffffffffffffffffffffffffffffff021916908373ffffffffffffffffffffffffffffffffffffffff16021790555091602001919060010190610a98565b5b509050610afe9190610b02565b5090565b5b80821115610b1b576000816000905550600101610b03565b5090565b6000819050919050565b610b3281610b1f565b82525050565b6000602082019050610b4d6000830184610b29565b92915050565b600080fd5b610b6181610b1f565b8114610b6c57600080fd5b50565b600081359050610b7e81610b58565b92915050565b600060208284031215610b9a57610b99610b53565b5b6000610ba884828501610b6f565b91505092915050565b600073ffffffffffffffffffffffffffffffffffffffff82169050919050565b6000610bdc82610bb1565b9050919050565b610bec81610bd1565b82525050565b6000602082019050610c076000830184610be3565b92915050565b600081519050919050565b600082825260208201905092915050565b6000819050602082019050919050565b610c4281610bd1565b82525050565b6000610c548383610c39565b60208301905092915050565b6000602082019050919050565b6000610c7882610c0d565b610c828185610c18565b9350610c8d83610c29565b8060005b83811015610cbe578151610ca58882610c48565b9750610cb083610c60565b925050600181019050610c91565b5085935050505092915050565b60006020820190508181036000830152610ce58184610c6d565b905092915050565b6000610cf882610bb1565b9050919050565b610d0881610ced565b82525050565b6000602082019050610d236000830184610cff565b92915050565b6000819050919050565b610d3c81610d29565b8114610d4757600080fd5b50565b600081359050610d5981610d33565b92915050565b60008060408385031215610d7657610d75610b53565b5b6000610d8485828601610d4a565b9250506020610d9585828601610b6f565b9150509250929050565b610da881610d29565b82525050565b6000602082019050610dc36000830184610d9f565b92915050565b600082825260208201905092915050565b7f4f6e6c7920565246436f6f7264696e61746f722063616e2066756c66696c6c00600082015250565b6000610e10601f83610dc9565b9150610e1b82610dda565b602082019050919050565b60006020820190508181036000830152610e3f81610e03565b9050919050565b7f4e487b7100000000000000000000000000000000000000000000000000000000600052601260045260246000fd5b6000610e8082610b1f565b9150610e8b83610b1f565b925082610e9b57610e9a610e46565b5b828206905092915050565b7f4e487b7100000000000000000000000000000000000000000000000000000000600052603260045260246000fd5b7f4e487b7100000000000000000000000000000000000000000000000000000000600052601160045260246000fd5b6000610f0f82610b1f565b91507fffffffffffffffffffffffffffffffffffffffffffffffffffffffffffffffff8203610f4157610f40610ed5565b5b600182019050919050565b7f4e487b7100000000000000000000000000000000000000000000000000000000600052604160045260246000fd5b600081519050610f8a81610b58565b92915050565b600060208284031215610fa657610fa5610b53565b5b6000610fb484828501610f7b565b91505092915050565b7f4e6f7420656e6f756768204c494e4b20696e20636f6e74726163740000000000600082015250565b6000610ff3601b83610dc9565b9150610ffe82610fbd565b602082019050919050565b6000602082019050818103600083015261102281610fe6565b9050919050565b600060408201905061103e6000830185610d9f565b61104b6020830184610b29565b9392505050565b600081519050919050565b600082825260208201905092915050565b60005b8381101561108c578082015181840152602081019050611071565b60008484015250505050565b6000601f19601f8301169050919050565b60006110b482611052565b6110be818561105d565b93506110ce81856020860161106e565b6110d781611098565b840191505092915050565b60006060820190506110f76000830186610cff565b6111046020830185610b29565b818103604083015261111681846110a9565b9050949350505050565b60008115159050919050565b61113581611120565b811461114057600080fd5b50565b6000815190506111528161112c565b92915050565b60006020828403121561116e5761116d610b53565b5b600061117c84828501611143565b91505092915050565b600061119082610b1f565b915061119b83610b1f565b92508282019050808211156111b3576111b2610ed5565b5b92915050565b60006080820190506111ce6000830187610d9f565b6111db6020830186610b29565b6111e86040830185610cff565b6111f56060830184610b29565b95945050505050565b6000819050919050565b61121961121482610d29565b6111fe565b82525050565b6000819050919050565b61123a61123582610b1f565b61121f565b82525050565b600061124c8285611208565b60208201915061125c8284611229565b602082019150819050939250505056fea2646970667358221220ef45e97802a75b64673e217dde1a197fc6026fe236372245f747a2295b476a1964736f6c63430008180033",
  "linkReferences": {},
  "deployedLinkReferences": {}
}